{
  "contractName": "ChainList",
  "abi": [
    {
      "constant": false,
      "inputs": [
        {
          "name": "_id",
          "type": "uint256"
        }
      ],
      "name": "buyArticle",
      "outputs": [],
      "payable": true,
      "stateMutability": "payable",
      "type": "function"
    },
    {
      "constant": false,
      "inputs": [],
      "name": "kill",
      "outputs": [],
      "payable": false,
      "stateMutability": "nonpayable",
      "type": "function"
    },
    {
      "constant": true,
      "inputs": [],
      "name": "getArticlesForSale",
      "outputs": [
        {
          "name": "",
          "type": "uint256[]"
        }
      ],
      "payable": false,
      "stateMutability": "view",
      "type": "function"
    },
    {
      "constant": true,
      "inputs": [],
      "name": "getNumberOfArticles",
      "outputs": [
        {
          "name": "",
          "type": "uint256"
        }
      ],
      "payable": false,
      "stateMutability": "view",
      "type": "function"
    },
    {
      "constant": false,
      "inputs": [
        {
          "name": "_name",
          "type": "string"
        },
        {
          "name": "_description",
          "type": "string"
        },
        {
          "name": "_price",
          "type": "uint256"
        }
      ],
      "name": "sellArticle",
      "outputs": [],
      "payable": false,
      "stateMutability": "nonpayable",
      "type": "function"
    },
    {
      "constant": true,
      "inputs": [
        {
          "name": "",
          "type": "uint256"
        }
      ],
      "name": "articles",
      "outputs": [
        {
          "name": "id",
          "type": "uint256"
        },
        {
          "name": "seller",
          "type": "address"
        },
        {
          "name": "buyer",
          "type": "address"
        },
        {
          "name": "name",
          "type": "string"
        },
        {
          "name": "description",
          "type": "string"
        },
        {
          "name": "price",
          "type": "uint256"
        }
      ],
      "payable": false,
      "stateMutability": "view",
      "type": "function"
    },
    {
      "inputs": [],
      "payable": false,
      "stateMutability": "nonpayable",
      "type": "constructor"
    },
    {
      "anonymous": false,
      "inputs": [
        {
          "indexed": true,
          "name": "_id",
          "type": "uint256"
        },
        {
          "indexed": true,
          "name": "_seller",
          "type": "address"
        },
        {
          "indexed": false,
          "name": "_name",
          "type": "string"
        },
        {
          "indexed": false,
          "name": "_price",
          "type": "uint256"
        }
      ],
      "name": "sellArticleEvent",
      "type": "event"
    },
    {
      "anonymous": false,
      "inputs": [
        {
          "indexed": true,
          "name": "_id",
          "type": "uint256"
        },
        {
          "indexed": true,
          "name": "_seller",
          "type": "address"
        },
        {
          "indexed": true,
          "name": "_buyer",
          "type": "address"
        },
        {
          "indexed": false,
          "name": "_name",
          "type": "string"
        },
        {
          "indexed": false,
          "name": "_price",
          "type": "uint256"
        }
      ],
      "name": "buyArticleEvent",
      "type": "event"
    }
  ],
  "bytecode": "0x6060604052341561000f57600080fd5b33600260006101000a81548173ffffffffffffffffffffffffffffffffffffffff021916908373ffffffffffffffffffffffffffffffffffffffff160217905550610c448061005f6000396000f300606060405260043610610078576000357c0100000000000000000000000000000000000000000000000000000000900463ffffffff1680631cc4baa81461007d57806341c0e1b5146100955780637f6be3da146100aa57806389da85d314610114578063d26095151461013d578063edcfafe6146101e6575b600080fd5b610093600480803590602001909190505061039c565b005b34156100a057600080fd5b6100a8610683565b005b34156100b557600080fd5b6100bd61071a565b6040518080602001828103825283818151815260200191508051906020019060200280838360005b838110156101005780820151818401526020810190506100e5565b505050509050019250505060405180910390f35b341561011f57600080fd5b6101276108b6565b6040518082815260200191505060405180910390f35b341561014857600080fd5b6101e4600480803590602001908201803590602001908080601f0160208091040260200160405190810160405280939291908181526020018383808284378201915050505050509190803590602001908201803590602001908080601f016020809104026020016040519081016040528093929190818152602001838380828437820191505050505050919080359060200190919050506108c0565b005b34156101f157600080fd5b6102076004808035906020019091905050610ae5565b604051808781526020018673ffffffffffffffffffffffffffffffffffffffff1673ffffffffffffffffffffffffffffffffffffffff1681526020018573ffffffffffffffffffffffffffffffffffffffff1673ffffffffffffffffffffffffffffffffffffffff16815260200180602001806020018481526020018381038352868181546001816001161561010002031660029004815260200191508054600181600116156101000203166002900480156103045780601f106102d957610100808354040283529160200191610304565b820191906000526020600020905b8154815290600101906020018083116102e757829003601f168201915b50508381038252858181546001816001161561010002031660029004815260200191508054600181600116156101000203166002900480156103875780601f1061035c57610100808354040283529160200191610387565b820191906000526020600020905b81548152906001019060200180831161036a57829003601f168201915b50509850505050505050505060405180910390f35b6000806001541115156103ae57600080fd5b6000821180156103c057506001548211155b15156103cb57600080fd5b600080838152602001908152602001600020905060008160020160009054906101000a900473ffffffffffffffffffffffffffffffffffffffff1673ffffffffffffffffffffffffffffffffffffffff1614151561042857600080fd5b8060010160009054906101000a900473ffffffffffffffffffffffffffffffffffffffff1673ffffffffffffffffffffffffffffffffffffffff163373ffffffffffffffffffffffffffffffffffffffff161415151561048757600080fd5b80600501543414151561049957600080fd5b338160020160006101000a81548173ffffffffffffffffffffffffffffffffffffffff021916908373ffffffffffffffffffffffffffffffffffffffff1602179055508060010160009054906101000a900473ffffffffffffffffffffffffffffffffffffffff1673ffffffffffffffffffffffffffffffffffffffff166108fc349081150290604051600060405180830381858888f19350505050151561054057600080fd5b8060020160009054906101000a900473ffffffffffffffffffffffffffffffffffffffff1673ffffffffffffffffffffffffffffffffffffffff168160010160009054906101000a900473ffffffffffffffffffffffffffffffffffffffff1673ffffffffffffffffffffffffffffffffffffffff16837f1022115f3a730bbc8daef9a08e80544240a1578ecba51270e55ab8e72d626e7284600301856005015460405180806020018381526020018281038252848181546001816001161561010002031660029004815260200191508054600181600116156101000203166002900480156106705780601f1061064557610100808354040283529160200191610670565b820191906000526020600020905b81548152906001019060200180831161065357829003601f168201915b5050935050505060405180910390a45050565b600260009054906101000a900473ffffffffffffffffffffffffffffffffffffffff1673ffffffffffffffffffffffffffffffffffffffff163373ffffffffffffffffffffffffffffffffffffffff161415156106df57600080fd5b600260009054906101000a900473ffffffffffffffffffffffffffffffffffffffff1673ffffffffffffffffffffffffffffffffffffffff16ff5b610722610b5f565b61072a610b5f565b600080610735610b5f565b60008060015414156107685760006040518059106107505750595b908082528060200260200182016040525095506108ae565b6001546040518059106107785750595b9080825280602002602001820160405250945060009350600192505b6001548311151561083b57600080600085815260200190815260200160002060020160009054906101000a900473ffffffffffffffffffffffffffffffffffffffff1673ffffffffffffffffffffffffffffffffffffffff16141561082e5760008084815260200190815260200160002060000154858581518110151561081757fe5b906020019060200201818152505083806001019450505b8280600101935050610794565b836040518059106108495750595b90808252806020026020018201604052509150600090505b838110156108aa57848181518110151561087757fe5b90602001906020020151828281518110151561088f57fe5b90602001906020020181815250508080600101915050610861565b8195505b505050505090565b6000600154905090565b60016000815480929190600101919050555060c06040519081016040528060015481526020013373ffffffffffffffffffffffffffffffffffffffff168152602001600073ffffffffffffffffffffffffffffffffffffffff1681526020018481526020018381526020018281525060008060015481526020019081526020016000206000820151816000015560208201518160010160006101000a81548173ffffffffffffffffffffffffffffffffffffffff021916908373ffffffffffffffffffffffffffffffffffffffff16021790555060408201518160020160006101000a81548173ffffffffffffffffffffffffffffffffffffffff021916908373ffffffffffffffffffffffffffffffffffffffff16021790555060608201518160030190805190602001906109f7929190610b73565b506080820151816004019080519060200190610a14929190610b73565b5060a082015181600501559050503373ffffffffffffffffffffffffffffffffffffffff166001547fe6dcabaf37bca305551877dc9bc2cb6019fbb7859c0f74c037077d948fb17c5685846040518080602001838152602001828103825284818151815260200191508051906020019080838360005b83811015610aa5578082015181840152602081019050610a8a565b50505050905090810190601f168015610ad25780820380516001836020036101000a031916815260200191505b50935050505060405180910390a3505050565b60006020528060005260406000206000915090508060000154908060010160009054906101000a900473ffffffffffffffffffffffffffffffffffffffff16908060020160009054906101000a900473ffffffffffffffffffffffffffffffffffffffff1690806003019080600401908060050154905086565b602060405190810160405280600081525090565b828054600181600116156101000203166002900490600052602060002090601f016020900481019282601f10610bb457805160ff1916838001178555610be2565b82800160010185558215610be2579182015b82811115610be1578251825591602001919060010190610bc6565b5b509050610bef9190610bf3565b5090565b610c1591905b80821115610c11576000816000905550600101610bf9565b5090565b905600a165627a7a723058200109a047837e86a2931afea1578df11539704de48466bc5f91266beada1bd4440029",
  "source": "pragma solidity ^0.4.11;\n\ncontract ChainList {\n\n    // Custom types\n    struct Article {\n        uint id;\n        address seller;\n        address buyer;\n        string name;\n        string description;\n        uint256 price;\n    }\n\n    // State variables\n    // mapping è una mappa, ma non può essere iterata, quindi semplicemente si\n    // può solamente verificare se esitono i valori.\n    // dato che dichiariamo il mapping come public il compilatore genererà in automatico un getter\n    // per articles ma non un setter.\n    mapping(uint => Article) public articles;\n    uint articleCounter;\n    address owner;\n\n    // Events\n    event sellArticleEvent(uint indexed _id, address indexed _seller, string _name, uint256 _price);\n    event buyArticleEvent(uint indexed _id, address indexed _seller, address indexed _buyer, string _name, uint256 _price);\n\n    function ChainList() public {\n        owner = msg.sender;\n    }\n\n\n    function sellArticle(string _name, string _description, uint256 _price)\n    public {\n        // track a new article\n        articleCounter++;\n\n        // store this article\n        articles[articleCounter] = Article(\n                articleCounter,\n                msg.sender,\n                0x0,\n                _name,\n                _description,\n                _price\n        );\n\n        // trigger the event\n        sellArticleEvent(articleCounter, msg.sender, _name, _price);\n    }\n\n    // Modifiers\n    modifier onlyOwner() {\n        require(msg.sender == owner);\n        _;\n    }\n\n    // fetch the number of articles in the contract\n    function getNumberOfArticles() public constant returns (uint) {\n        return articleCounter;\n    }\n\n    // fetch and returns all article IDs available for sale\n    function getArticlesForSale() public constant returns (uint[]){\n        // we check wheter there is at least an article for sale\n        if(articleCounter == 0) {\n            return new uint[](0);\n        }\n\n        // prepare output array\n        uint[] memory articleIDs = new uint[](articleCounter);\n\n        uint numberOfArticlesForSale = 0;\n\n        // iterate over articles\n        for(uint i = 1; i <= articleCounter; i++) {\n            if(articles[i].buyer == 0x0) {\n                articleIDs[numberOfArticlesForSale] = articles[i].id;\n                numberOfArticlesForSale++;\n            }\n        }\n\n        // copy the articleIDs array into the smaller forSale array\n        uint[] memory forSale = new uint[](numberOfArticlesForSale);\n        for(uint j = 0; j < numberOfArticlesForSale; j++) {\n            forSale[j] = articleIDs[j];\n        }\n        return (forSale);\n    }\n\n    // buy an article\n    // quando una funzione è \"payable\" può ricevere valore dal msg.sender\n    function buyArticle(uint _id) payable public {\n        // we check wheter there is at least an article\n        require(articleCounter > 0);\n\n        // we check wheter the article exists\n        require(_id > 0 && _id <= articleCounter);\n\n        // we retreive the Article\n        Article storage article = articles[_id];\n\n        // we check that the article was not already sold\n        require(article.buyer == 0x0);\n\n        // we don't allow the seller to buy it's own article\n        require(msg.sender != article.seller);\n\n        // we check wether the value sent corresponds to the article price\n        require(msg.value == article.price);\n\n        // keep buyer's information\n        article.buyer = msg.sender;\n\n        // the buyer can buy the article\n        article.seller.transfer(msg.value);\n\n        // trigger the buy event\n        buyArticleEvent(_id, article.seller, article.buyer, article.name, article.price);\n    }\n\n    function kill() onlyOwner public {\n        // refund all the remainings funds to the owner\n        selfdestruct(owner);\n    }\n}\n",
  "sourcePath": "/Users/pul/Sviluppo/studio/ethereum/chainskills/chainlist/contracts/ChainList.sol",
  "compiler": {
    "name": "solc",
    "version": "0.4.18+commit.9cf6e910.Emscripten.clang"
  },
  "schemaVersion": "1.0.1",
  "updatedAt": "2018-02-05T06:23:25.886Z"
}